:020000040800F2
:10000000800B00208901000891010008930100087D
:100010009501000897010008990100080000000000
:100020000000000000000000000000009B0100082C
:100030009D010008000000009F010008A1010008C8
:10004000A3010008A3010008A3010008A301000800
:10005000A3010008A3010008A3010008A3010008F0
:10006000A3010008A3010008A3010008A3010008E0
:10007000A3010008A3010008A3010008A3010008D0
:10008000A3010008A3010008A3010008A3010008C0
:10009000A3010008A3010008A3010008A3010008B0
:1000A000A3010008A3010008A3010008A3010008A0
:1000B000A3010008A3010008A3010008A301000890
:1000C000A3010008A3010008A3010008A301000880
:1000D000A301000891150008A3010008A30100086E
:1000E000A3010008A3010008A301000800F002F822
:1000F00000F03AF80AA090E8000C82448344AAF188
:100100000107DA4501D100F02FF8AFF2090EBAE885
:100110000F0013F0010F18BFFB1A43F0010318473B
:100120000429000024290000103A24BF78C878C1AF
:10013000FAD8520724BF30C830C144BF04680C60ED
:10014000704700000023002400250026103A28BF35
:1001500078C1FBD8520728BF30C148BF0B60704739
:100160001FB51FBD10B510BD00F031F81146FFF7E7
:10017000F7FF01F0CBFA00F04FF803B4FFF7F2FFFE
:1001800003BC00F057F800000948804709480047C1
:10019000FEE7FEE7FEE7FEE7FEE7FEE7FEE7FEE737
:1001A000FEE7FEE704480549054A064B7047000094
:1001B00081150008ED00000880050020800B00205C
:1001C0008007002080070020704770477047754601
:1001D00000F02CF8AE4605006946534620F00700B3
:1001E000854618B020B5FFF7DDFFBDE820404FF091
:1001F00000064FF000074FF000084FF0000B21F011
:100200000701AC46ACE8C009ACE8C009ACE8C009DD
:10021000ACE8C0098D46704710B50446AFF30080C6
:100220002046BDE81040FFF7A8BF00000048704717
:100230002005002001491820ABBEFEE72600020081
:100240007047000010B507480078401C00F003001C
:10025000044908700449034A1278885C01F0E8F800
:1002600010BD00000A000020B41800080248007801
:10027000401C0149087070470C00002010B5002098
:1002800008490870084908700320084908700020D0
:1002900000F0F2FB0649054A1278885C01F0C8F8C4
:1002A00010BD00000B0000200C0000200A00002000
:1002B000B418000801200149087070470B000020A5
:1002C00000200149087070470B00002010B5002085
:1002D0001249087012490870032012490870002062
:1002E00011490860114908701149086011490870E6
:1002F00011490870114908701149087011490860C6
:100300000021084600F092F80F49064A1278885CEE
:1003100001F08EF80D4800F04DFE10BD0B000020DE
:100320000C0000200A000020100000201400002013
:1003300018000020480000200800002009000020CC
:100340000000002004000020B4180008781A0008FB
:1003500010B500F061FC0C480078022813D101F0C0
:1003600011F90A490968401A4FF4FA71B0FBF1F02B
:1003700000F001040CB9012100E0002108462146EB
:1003800000F05EFB00BF10BD000000200400002054
:1003900070B505460C46164605EB4400314600F0A4
:1003A000B1FF2044C0B270BD014800687047000032
:1003B0003800002010B500F059F81048806940F06E
:1003C0001D000E498861072206210D4800F01DF925
:1003D000072211460A4800F018F9C02008491031D8
:1003E000086000F011F802220D21064800F00DF916
:1003F0004FF400500349086110BD00000010024096
:10040000000C01400010014000B502220C210648FA
:1004100000F0FBF802220D21034800F0F6F800215D
:10042000084600F003F800BD000C014030B502465C
:1004300000200AB9012500E000252B4609B9012555
:1004400000E000252C4613B14FF4805501E04FF039
:100450008055284314B14FF4005501E04FF000558A
:100460002843014D286030BD100C014012212F4A55
:1004700011602F49496941F010012D4A516111461F
:10048000096841F4803111604FF4802000E0401E83
:100490002749096801F4003109B90028F7D1244936
:1004A000096801F4003119B92249234A11607047E3
:1004B00022491F4A51601146096841F0807111605C
:1004C0004FF4802000E0401E1949096801F00071D6
:1004D00009B90028F7D11649096801F0007119B966
:1004E0001449154A1160E2E71149496821F00301F6
:1004F000891C0F4A51604FF4802000E0401E0C49D7
:100500004968C1F38101022901D00028F6D10849C8
:100510004968C1F38101022903D10949064A1160E2
:1005200002E00449044A116000BFC0E70020024015
:100530000010024000127A003800002000041D0064
:1005400000A24A04124A12684FF47A73B2FBF3F223
:10055000511E1AE04FF0E022516100224FF0E023DB
:100560009A6105221A6100BF4FF0E022126902F47D
:100570008032002AF8D000224FF0E0231A61054AA9
:100580001268521C034B1A60401E0028E2D17047CB
:10059000380000203C00002010B501460022462310
:1005A00010E0D41860100A4C34F810408C4200D18E
:1005B00010BD074C34F810408C4201DA421C00E0B8
:1005C000431E00BF9A42ECDD4FF0FF30F0E7000021
:1005D000B62000082DE9F04106460D460024002D06
:1005E00008DA2D2026F81400601CC4B2681CC0F183
:1005F000010700E02F4606EB4400394600F082FE7A
:100600002044C4B22046BDE8F08170B503461546CB
:10061000082902D218468A0003E0181DA1F1080635
:10062000B20004680F269640B44305FA02F634433C
:10063000046070BD08B50820009004E09DF800003B
:10064000401EC0B200909DF800000028F6D108BD01
:1006500010B580200949086040200860FFF7EAFFD4
:1006600080200649091D0860FFF7E4FF4020034988
:10067000091D0860FFF7DEFF10BD0000100C0140EF
:1006800010B58020064908604020091F0860FFF768
:10069000D1FF80200249091F0860FFF7CBFF10BD82
:1006A000140C014070B5044600261BE004F08000E5
:1006B00018B180201849086003E080201649091D00
:1006C0000860FFF7B7FF402013490860FFF7B2FF4B
:1006D00040201149091D0860FFF7ACFF6006040EB9
:1006E000701CC6B2082EE1D380200B490860FFF7CA
:1006F000A1FF402008490860FFF79CFF0648083822
:100700000068012121EAD01540200349091D086035
:10071000FFF790FF284670BD100C014030B589B03E
:100720001D4800F08CFE05461B4A0021084600F0DB
:1007300061FD1A4A0021284600F05CFD184800F0CF
:100740007EFE0546164A0221002000F053FD154AA0
:100750000221284600F04EFD134800F070FE0546C9
:10076000114A0421002000F045FD1048016801A84D
:10077000FFF730FF0446002001A921F8140001AA68
:100780000421284600F036FD094A0621002000F029
:1007900031FD09B030BD00001018000870170008C6
:1007A000161800088A1700081C18000810000020FE
:1007B0000418000810B50446042C01D0052C01D102
:1007C00000F086FA10BD000010B5002415E0164AAE
:1007D00002EBC4021179144A52F834000822FFF7E0
:1007E00014FF114800EBC4000179012088400E4934
:1007F00051F834100861601CC4B2042CE7D3002007
:100800000A4908700A490860002409E000200949E3
:100810000855094941F8240008490855601CC4B22C
:10082000042CF3D310BD00008C1A0008280000200F
:100830003400002029000020D00000202D000020DE
:100840002DE9F04100F09EFE0546002700263748BE
:100850000068281A052802D20020BDE8F08133483C
:100860000560002411E0324850F8340080683049B7
:1008700001EBC4010A7901219140084018B9012017
:10088000A040C0B20743601CC4B2042CEBD30024C8
:1008900048E00121A140C8B207EA0001A1B32549FF
:1008A000095D022904D22349095D491C214A1155D9
:1008B0002049095D022911D31F490978014069B90E
:1008C0001D49097801431C4A11701C4941F8245004
:1008D00000211B4A11550EB9611CCEB21649097888
:1008E0000140E9B11649095DD1B9144951F8241004
:1008F000691AB1F5487F13D396B90121104A1155F1
:10090000032C0DD105260BE0FFE70021094A115504
:10091000094909788143084A11700021084A115594
:10092000601CC4B2042CB4D3304696E734000020D7
:100930008C1A00082900002028000020D000002088
:100940002D00002010B51F4A0021082000F052FCA5
:100950001D48007808B11D4800E01D4802460021EE
:100960007E2000F083FC1B4A0221082000F042FC9C
:100970001948007808B1154800E0154802460221E0
:100980007E2000F073FC15480078022801D1144C39
:1009900007E012480078012801D10C4800E00C481B
:1009A0000446104A0421082000F024FC22460421B9
:1009B0007E2000F05BFC0C4A0621082000F01AFCA7
:1009C00010BD0000D617000808000020F617000828
:1009D000FA170008E21700080900002000000020B4
:1009E000FE170008EE1700080418000810B50446AA
:1009F000012C06D0022C0FD0042C11D0052C13D1C1
:100A00000FE00B490978012901D0012100E0002104
:100A1000084600F031F808E0022000F02DF804E06C
:100A200000BF00F055F900E000BF00BF10BD00009E
:100A30000000002010B5002000F01EF810BD0000DE
:100A400070B505460C460A480078854204D109482D
:100A50000078844200D170BD0548057005480470D7
:100A600021462846FFF7E2FC00F0B8FA00BFF2E7A3
:100A7000080000200900002010B504460E4804704C
:100A800000F080FD0D4908607CB1012C02D0022CE1
:100A90000AD104E001210846FFF7D2FF0AE0002155
:100AA0000120FFF7CDFF05E000BF00210846FFF75A
:100AB000C7FF00BF00BF10BD0000002004000020E1
:100AC00010B504460D2C01D00A2C06D100F0C0F858
:100AD00000F058FD1349086010BD1348007817282E
:100AE00017D212481049097844540F480078401C26
:100AF0000D49087000200D490B4A127888540846A9
:100B000000F016F840B100F0C5F800200649087062
:100B100002E000200449087000F034FD014908603B
:100B200000BFD9E718000020140000204800002072
:100B30000246002318E01178521C202901D009290F
:100B400000D111E0612904DB7A2902DCA1F1200047
:100B5000C1B2042B03D20948C05C884201D00020F6
:100B60007047581CC3B200BF10780028E3D1042B93
:100B700001D10120F4E70020F2E70000841A000808
:100B800070B502460B4601250021002400E0521CEE
:100B900010782028FBD010780928F8D010782D285C
:100BA00003D14FF0FF35521C03E010782B2800D101
:100BB000521C13E01748814202D96FF000410AE04D
:100BC0001078303801EB810600EB4601B1F1004F9F
:100BD00001D36FF00041601CC4B2521C1078302861
:100BE00002DB10783928E5DD00E0521C107820285F
:100BF000FBD010780928F8D00CB1107808B100208B
:100C000070BD002D01DA484200E00846186001205E
:100C1000F6E70000CCCCCC0C08B503E09DF8000052
:100C2000FFF74EFF684600F07FFC0028F6D106482B
:100C3000007840B100F0A6FC04490968401A3C283D
:100C400001D300F005F808BD1400002018000020B2
:100C500008B500200C490D4A127888540B480078DA
:100C600070B169460848FFF78BFF48B10849009802
:100C70000968884204D006490098086000F0AEF97F
:100C800000200249087008BD480000201400002020
:100C90001000002030B589B00C48016801A8FFF7AA
:100CA00099FC0546002406E001A911F8140000F0A3
:100CB00059FC601CC4B2AC42F6DB0D2000F052FCC3
:100CC0000A2000F04FFC09B030BD000010000020E9
:100CD00010B500F0A7F910BD10B500F02FF8047999
:100CE0001148007811490978884203DA0E480078E3
:100CF0000E4908700D480078001DC0B20A490978F5
:100D0000884204DC08480078C01E08490870042C9A
:100D100008D9201FC0B205490978884202DA201F8D
:100D20000249087010BD00002500002026000020A8
:100D30000020014908707047270000200348007810
:100D4000401E034951F82000704700002400002095
:100D5000B00000202DE9F047FFF7F0FF044600F057
:100D6000A5F9A06838B1A068406820B1A1684868BA
:100D70008047BDE8F0872779002522E028480078E1
:100D8000284400F0FF0868064FEA106AB84500DB07
:100D900019E0206800EB081651460C20326800F07C
:100DA00029FAF06858B1F06880478146B9F1000F20
:100DB00004D04A4651467E2000F058FA00BF681C15
:100DC000C5B2042DDAD300BF16480078144909785B
:100DD000884220DB1348007811490978401AC0B2D4
:100DE000042818D20F4800780D490978401A00F0FD
:100DF000FF084FEA4860060E022380223146002099
:100E000000F0C4FA042000EBC600C1B200220320A7
:100E100000F00AF800BF384600F028F800BFA8E745
:100E200026000020250000202DE9F04106460F464F
:100E30009046002415E000250FE0A5420BDBC4F12D
:100E40000800C0B2A84206DB7A19D1B23219D0B27A
:100E5000424600F0A3F9681CC5B2092DEDD3601C11
:100E6000C4B2052CE7D3BDE8F081000038B50446D4
:100E7000042C00D838BD0A4800788000B0FBF4F09C
:100E8000C5B2042D00D30325012000906806010E91
:100E900002231A467E2000F003FA00BFEAE70000B2
:100EA0002500002010B504460C480078082800D31F
:100EB00010BD0B4800780B49084A127888540A483C
:100EC0000649097840F8214004480078401C03494D
:100ED000087000F0DBF800BFEAE700002400002003
:100EE000250000201C000020B000002070B5064640
:100EF000FFF724FF0446A06838B1A068006820B15D
:100F0000A06801683046884770BD207900B9FBE7CA
:100F1000062E45D2DFE806F044031626393C224867
:100F2000007818B92079401EC0B203E01E4800784E
:100F3000401EC0B21C490870FFF7CEFE01201B49BD
:100F400008702EE0217918480078401CB0FBF1F2BF
:100F500001FB120014490870FFF7BEFE012013497F
:100F600008701EE010490978206800EB01156868D8
:100F700018B16868FFF796FF06E0A86820B1A86876
:100F800080470120094908700BE0FFF7A1FE08E047
:100F900001E000F047F8064800780128F9D800E0A1
:100FA00000BF00BF00BFAFE72500002027000020E2
:100FB0002400002010B504460548046000200549BF
:100FC000087001200449087000F060F810BD0000AE
:100FD000B00000201C000020240000200120014956
:100FE0000870704727000020014800787047000013
:100FF0002700002070B5FFF7A1FE0546A86808B1DC
:10100000012070BD002408E0286800EB0410C068CF
:1010100008B10120F5E7601CC4B22879A042F3DCD6
:101020000020EEE710B513480078012800D810BD65
:1010300010480078401E104951F82040A06828B19F
:10104000A068806810B1A168886880470948007866
:10105000401E0849087009480978405C0849087032
:10106000002008490870FFF737FE01200649087084
:1010700000BFDCE724000020B00000201C0000209E
:101080002500002026000020270000200020044921
:101090000870044908700120034908707047000077
:1010A00025000020260000202700002000200CE062
:1010B000002106E00022064B03EBC0135A544A1CE1
:1010C000D1B28029F6D3421CD0B20828F0D37047A1
:1010D000E0000020F0B50346062900D9F0BD202A23
:1010E00001D37E2A00D93F22A2F12005134E06EB40
:1010F000051400201DE0124D05EBC1151E18AD5D55
:10110000265C35430E4E06EBC1161F18F5550C4EE6
:101110004D1C06EBC5151E18AD5D00F10806A65D59
:101120003543074F4E1C07EBC6161F18F555451CD7
:10113000E8B20828DFD300BFD0E70000C61A0008D5
:10114000E000002070B50346062900D970BD0020DC
:101150001DE0114C04EBC1141D18645D155C2C439B
:101160000D4D05EBC1151E18AC550B4D4C1C05EB78
:10117000C4141D18645D00F11005555D2C43064E26
:101180004D1C06EBC5151E18AC55441CE0B21028CA
:10119000DFD300BFDAE70000E000002030B5802890
:1011A00001D2402900D330BD82B1CB10104C04EBEA
:1011B000C3131B5C01F007050124AC40E4B22343D8
:1011C000CC100B4D05EBC41423540EE0CB10084C8F
:1011D00004EBC3131B5C01F007050124AC40A343DF
:1011E000CC10034D05EBC414235400BFDBE7000013
:1011F000E00000202DE9F8430446884615462DE01E
:101200002F88802F0BD2782C00D92AE0FAB24146E1
:101210002046FFF75FFF04F10800C4B21CE0702C09
:1012200000D91EE03846FFF7B7F90646002E07DB67
:101230000D4800EB461241462046FFF783FF07E0CA
:1012400000200223102241460090204600F028F89A
:1012500004F11000C4B200BFAD1C00BF28880028F4
:10126000CED100BFBDE8F883442100082DE9F0414C
:1012700004460F461546284600F0E1F80646A64209
:1012800005DB2A4639460020FFF7B4FF05E0A11B25
:10129000C8B22A463946FFF7ADFFBDE8F08100002D
:1012A0002DE9F04304460D46DDF81CC0002022E085
:1012B0002F18FEB2082E00D31FE0002116E004EB29
:1012C000010808F0FF07802F00D311E0BCF1000FE8
:1012D00002D04FF0FF0801E04FF00008DFF8209047
:1012E00009EBC61909F807804F1CF9B29142E6DBF9
:1012F00000BF461CF0B29842DADB00BFBDE8F083C5
:10130000E000002030B585B004460A46002122B92D
:1013100030202080012005B030BD0CE00A20B2FB57
:10132000F0F500FB152030302DF811000A20B2FB3B
:10133000F0F2481CC1B20AB10A29EFD3002307E03A
:10134000481EC01A3DF8100024F81300581CC3B200
:101350008B42F5DB0846DEE710B57820FFF7F2F8A0
:10136000402008490860802008600220FFF7EAF862
:101370001A220549002000F080F8FFF797FE00F0E0
:1013800037F810BD100C0140AC1A00082DE9F041EF
:1013900006460F4614461D46002022E03B18DAB2EE
:1013A000082A00D31FE0002116E006EB010C0CF028
:1013B000FF03802B00D311E0DFF830C00CEBC21C20
:1013C0001CF803C06FEA0C0CDFF8208008EBC21891
:1013D00008F803C04B1CD9B2A142E6DB00BF421C97
:1013E000D0B2A842DADB00BFBDE8F081E000002007
:1013F00038B5002417E044F0B0008DF8000000205C
:101400008DF8010010208DF80200032269460020AB
:1014100000F033F8054800EBC4118022402000F0B2
:101420002CF8601CC4B2082CE5D338BDE0000020C5
:1014300010B504462146812000F012F810BD014687
:10144000002208E00888802801D2082000E010204F
:10145000104482B2891C08880028F3D1D0B27047AA
:1014600038B505460C468DF800508DF80140022233
:101470006946002000F001F838BD2DE9F0418046B2
:101480000E461746FFF7E4F87820FFF70BF90546FC
:101490004046FFF707F90540002405E0305DFFF7FF
:1014A00001F90540601C84B2BC42F7DBFFF7E8F8A5
:1014B0002846BDE8F081000070B5044613488069F5
:1014C00040F48040114988610B2209211048FFF740
:1014D0009CF804220A210E48FFF797F8FEF764FFF4
:1014E00000EB5400B0FBF4F50A48056000200A49FF
:1014F00008700A4908700A49086042F22C00054940
:10150000091D086020200749086070BD00100240D6
:101510000008014008380140400000204100002040
:101520004400002004E100E001460B4800780B4A2B
:101530001278904201D1002070470948074A12787A
:10154000805C087005480078401C00F03F00034AAA
:1015500010700120F0E70000400000204100002052
:10156000E004002000BF0549096801F0800100295E
:10157000F9D00249091D0860704700000038014099
:101580007047000001480068704700003C000020E0
:1015900010B51249086800F02801E9B10F49091D8A
:1015A0000968CAB200F02001A9B10D4B1B785B1C81
:1015B00003F03F010B4B1B78994205D10A4B1B6886
:1015C0005B1C094C236005E0084B054C24781A5538
:1015D000034B197000BF00BF10BD00000038014070
:1015E000400000204100002044000020E0040020D2
:1015F00010B50648027800210548FEF7C9FE0446EA
:101600000020034921F81400084610BD0A000020FC
:101610009000002010B500247820084921F814001B
:10162000641C0748027821460448FEF7B1FE0446D0
:101630000020024921F81400084610BDA000002037
:101640000C00002070B5FEF7AFFE0F49B0FBF1F5BE
:101650002A4600210D48FEF79BFE04464D200B490B
:1016600021F81400601CC4B2482021F81400601C4A
:10167000C4B27A2021F81400601CC4B2002021F802
:101680001400084670BD000040420F0060000020BA
:101690000348007808B1034870470348FCE700009E
:1016A0000B00002098180008A018000870B5FFF77C
:1016B00069FF6421B0FBF1F50A20B5FBF0F6324674
:1016C00000210F48FEF764FE04462E200C4921F845
:1016D0001400601CC4B20A20B5FBF0F100FB1150ED
:1016E0003030074921F81400601CC4B2732021F87F
:1016F0001400601CC4B2002021F81400084670BD1C
:101700007800002000487047AA180008FEF752FE33
:101710004FF41650FFF7D0FEFFF71EFEFFF754F808
:10172000FEF7D4FDFFF72EFF064600BFFFF788F84F
:10173000044614B12046FFF7D9FBFEF709FEFFF778
:1017400021FF0546FFF750FC28B9FFF753FC58B1BD
:10175000A81BFA2808D3FFF7FDFAFFF749FEFFF7A9
:10176000E7FAFFF70FFF06460220FEF7EBFEDDE784
:10177000590061006E0067002000530068006F0090
:101780007500710069006E00000033003200360001
:101790003000320035003300360000004C004500B8
:1017A0004400A76336520000E14F6F603E663A790D
:1017B0000000E15DBF7E9F52FD800000D362555C5A
:1017C0009F52FD80000073518E4E2C673A670000D7
:1017D000D48FDE5600004C004500440031003A0032
:1017E00000004C004500440032003A000000216A2D
:1017F0000F5F3A000000AE4E00006D700000A44E76
:10180000FF66000009632E953400D48FDE56000079
:10181000D3590D540000665BF753000061002000AF
:101820003D00200000003B4E91980000D08F4C8876
:1018300000002F54A852E15DBF7E00005C50626B37
:10184000E15DBF7E0000B672016000000287239E4A
:1018500068564B6DD58B0000CC804951AE4EA65ECC
:101860000000FB7CDF7EBE8B6E7F000048722C6721
:10187000E14F6F60000062600D59D89EA48B00009C
:10188000530054004D003300320046003100300058
:101890003300430038000000520055004E000000A5
:1018A000530054004F0050000000560031002E003D
:1018B000300000000F3F8FCFB50700081D0700085C
:1018C00000000000ED09000845090008350A00087D
:1018D0006C18000800000000000000000517000858
:1018E00076180008000000007D02000800000000DB
:1018F000D017000800000000D10C00080000000014
:10190000D018000803000000000000004C18000878
:10191000000000006D0200081516000858180008A5
:101920000000000045020008F115000862180008D8
:10193000001900080000000000000000D017000897
:1019400000000000D10C0008000000000C19000885
:101950000400000000000000000000000000000083
:1019600000000000000000005819000800000000FE
:10197000C418000800000000000000000000000083
:10198000000000007419000800000000B8180008EA
:101990003218000800000000B50200080000000036
:1019A0003C18000800000000C10200080000000010
:1019B0004618000800000000000000009116000812
:1019C000D017000800000000D10C00080000000043
:1019D00090190008040000000000000080180008B2
:1019E00000000000000000000000000026180008B1
:1019F0000000000000000000451600082C18000838
:101A00000000000000000000AD160008D01700081C
:101A100000000000D10C000800000000DC190008E4
:101A200004000000000000009C170008681900086E
:101A30000000000000000000A8170008841900083A
:101A40000000000000000000B2170008D0190008D4
:101A50000000000000000000BC1700084C1900083E
:101A60000000000000000000C61700081C1A000853
:101A70000000000000000000281A00080500000017
:101A800000000000474554410000000000080140EC
:101A900000000000000801400300000000080140B1
:101AA00005000000000C014000000000AED580A839
:101AB0003FD300408D142002A1C8DA1281CFD9F1A2
:101AC000DB40A4A62EAF00000000000000000000D4
:101AD000000000000000000000F80000000000000E
:101AE00000330000000000100C02100C0200000087
:101AF0000000000000000040C07840C078000004F2
:101B00003F04043F040000708888FC08300000187F
:101B10002020FF211E00F008F08060180000003136
:101B20000C031E211E0000F00888700000001E211A
:101B3000232C1927211000120E00000000000000C5
:101B4000000000000000000000E018040200000097
:101B500000071820400000020418E00000000040C8
:101B6000201807000000404080F080404000020242
:101B7000010F0102020000000000E000000000016F
:101B800001010F01010100000000000000000090B1
:101B900070000000000000000000000000000001D4
:101BA0000101010101000000000000000000003000
:101BB00030000000000000000000C0380400006099
:101BC00018070000000000E010080810E000000FF7
:101BD000102020100F0000001010F800000000007E
:101BE00020203F202000007008080808F000003086
:101BF00028242221300000300808088870000018CE
:101C0000202121221C000000804030F80000000646
:101C10000524243F242400F8888888080800001937
:101C2000202020110E0000E0108888900000000F96
:101C3000112020201F0000180808886818000000E4
:101C4000003E010000000070880808887000001C39
:101C5000222121221C0000F008080810E0000001E9
:101C6000122222110F00000000C0C000000000007E
:101C70000030300000000000008000000000000084
:101C800000E000000000000080402010080000017B
:101C90000204081020000040404040404000000284
:101CA0000202020202000008102040800000002012
:101CB0001008040201000070480808887000000045
:101CC000003037000000C030C828E810E0000718D6
:101CD00027282F2817000000C038E0000000203C13
:101CE00023020227382008F8888888700000203FE7
:101CF000202020110E00C0300808080838000718FE
:101D000020202010080008F808080810E000203FF4
:101D1000202020100F0008F88888E8081000203FD5
:101D200020202320180008F88888E8081000203FA9
:101D3000200003000000C030080808380000071821
:101D40002020221E020008F808000008F808203FA2
:101D5000210101213F20000808F8080800000020A8
:101D6000203F2020000000000808F8080800C0807C
:101D700080807F00000008F888C028180800203FF5
:101D800020012638200008F8080000000000203F4D
:101D900020202020300008F8F800F8F80800203F44
:101DA000013E013F200008F830C00008F808203F3D
:101DB000200007183F00E01008080810E0000F108E
:101DC000202020100F0008F808080808F000203F25
:101DD000210101010000E01008080810E0000F10C8
:101DE000282830504F0008F8888888887000203FE5
:101DF0002000030C302000708808080838000038E4
:101E0000202121221C00180808F8080818000000EA
:101E1000203F2000000008F808000008F808001F14
:101E2000202020201F000878880000C83808000003
:101E300007380E01000008F800F800F80800000359
:101E40003E013E03000008186880806818082030B2
:101E50002C03032C30200838C800C83808000000C4
:101E6000203F2000000010080808C838080020386B
:101E7000262120201800000000FE020202000000BF
:101E8000007F40404000000438C000000000000017
:101E900000010638C00000020202FE0000000040FF
:101EA00040407F0000000000040202040000000027
:101EB0000000000000000000000000000000808022
:101EC000808080808080000202040000000000000A
:101ED0000000000000000000808080000000001969
:101EE0002424123F200010F0008080000000003FFA
:101EF000112020110E000000008080800000000EE4
:101F0000112020201100000080808090F000001F30
:101F1000202020103F200000808080800000001FD3
:101F2000242424241700008080E0909020000020CA
:101F3000203F202000000000808080808000006B17
:101F400094949493600010F0008080800000203F03
:101F5000210000203F200080989800000000002011
:101F6000203F20200000000000809898000000C062
:101F70008080807F000010F0000080808000203F83
:101F8000240629302000001010F800000000002076
:101F9000203F202000008080808080808000203FC3
:101FA00020003F20003F8080008080800000203F94
:101FB000210000203F200000808080800000001F62
:101FC000202020201F00808000808000000080FFF3
:101FD000912020110E000000008080008000000E83
:101FE00011202091FF808080800080808000202050
:101FF0003F212000010000008080808080000033AD
:10200000242424241900008080E080800000000047
:10201000001F202010008080000000808000001F32
:10202000202020103F2080808000808080000003DE
:102030000C300C0300008080008080008080010E46
:10204000300C07380601008080800080800000206E
:10205000310E2E3120008080800000808080008141
:102060008678180601000080808080808000002132
:10207000302C222130000000000000FC0202000091
:102080000000013E404000000000FF000000000092
:102090000000FF0000000202FC00000000004040C1
:1020A0003E010000000000020102020402000000E4
:1020B0000000000000003B4E8E4EA44EAE4E204F5E
:1020C000E14F5C504951735136529F52A8525553BB
:1020D000F7530D542F546856DE560D59D359665B8D
:1020E000555CE15DA65E005F0F5F016062606F603E
:1020F0001F615362D3620963A763F6653E66FF669C
:102100002C673A67216A626B4B6D146F6D70C170FA
:1021100047724872B6723A79FB7CBF7EDF7E6E7F73
:10212000CC80FD80AF82DC8302874C88A48BBE8B81
:10213000D58BD08FD48F2E95EA95ED95F495919807
:10214000239ED89E00080808080809FA080808080D
:1021500008080000404041414141417F4141414127
:102160004140400040404242424242FE42424242DE
:1021700042404000000000000040807F000000005E
:1021800000000000080888680808090E0808882868
:1021900048880800808140402122140814224140D0
:1021A000808180000004047454545556545454746F
:1021B00004040000848341211D05050505057D817A
:1021C0008185E300008060F807404848E85F4848A0
:1021D00048404000010000FF0000020B1222D20A1A
:1021E00006000000008060F807000424242526244F
:1021F00024240400010000FF000000F94949494976
:1022000049F900008060F80700047454555654548E
:10221000740400000000FF0003010545857D0505ED
:10222000050103004040424458C0407F40C0504830
:10223000464040008080402018070000003F40409A
:102240004040780000001011161010F01010141308
:10225000100000008181414121110D030D11214128
:102260004181810040504E4848FF48484840F800AE
:1022700000FF000000003E0202FF12221E000F407D
:10228000807F0000080808F80808081010FF1010E8
:1022900010F000001030101F088848300E014080F8
:1022A000403F00004044C4444444401010FF10101C
:1022B00010F00000103C131014B840300E014080A4
:1022C000403F00000000F8494A4C48F8484C4A4951
:1022D000F800000010101312121212FF1212121244
:1022E00013101000808080BEA2A2A2A2A2A2A2BE51
:1022F0008080800000000006050404044484443CFF
:102300000000000000202010081467844424140CEE
:102310000000000004040402FE43434242424242E1
:10232000FE000000000000FC444444454644444490
:10233000447C00004020180700FC444444444444CA
:1023400044FC000080809E9292929EE0809EB2D2D9
:10235000929E80000808F4949292F10001F2929407
:1023600094F808000000FE0202F2121212F20202B9
:10237000FE00000000007F202027242424272020A6
:102380007F000000201008F754545454545454F45F
:1023900004040000809090494D57252525554D4552
:1023A000808080001010F01F10F0403C1010FF10D3
:1023B00010100000402215081621404242427F4280
:1023C000424240004030119690909196909098141F
:1023D00013503000040404040444847E06050404FD
:1023E000040404000000FE129292F2929292F29281
:1023F000921E000080601F0404FC47240C14273444
:102400004C444400404042CC0040B00E40B00E402E
:10241000B00E00000040201F2040414E40414E4081
:10242000414E40000000FC242424FC252624FC24EA
:102430002424040040308F80844C55252525554C9C
:102440008080800080828282FE8282828282FE82FE
:1024500082828000008040300F0000000000FF00FA
:1024600000000000101090909090901010FF10103D
:1024700011161000002060203F10101000030C10F7
:102480002040F800000484844424548F142444849D
:1024900084040000413900003C4040424C40407000
:1024A0000409310000E000FF10200888780F08E8D8
:1024B00008088800010000FF00100C83442318075F
:1024C00018628100000000FC54545655545454FCCA
:1024D000000000004030000339414145594141733B
:1024E000000830000000FC04D4545454D4047F8409
:1024F000C53604008866010063828292AB8482C183
:102500000224CF00101010FF109004040404FC04F7
:10251000040404000444827F0100000040807F0026
:1025200000000000101010FF1090040484E49C844C
:10253000848404000444827F01040201FF4040407F
:1025400040FF0000101010FF9020988888E98E88C6
:1025500088A898000242817F000080844B281028C0
:1025600047800000101010FF9020984828090E287E
:1025700048A818000242817F0040404242427E4209
:102580004242400000FC848484FC001010101010B3
:10259000FF101000003F1010103F000001064080A7
:1025A0007F000000000000FE92929292929292FEB2
:1025B0000000000040424458407F4040407F40506F
:1025C00048464000109454341F34548054341F340F
:1025D00054949000010000FF49494949494949FF85
:1025E000000000000010101010D030FF30D010108C
:1025F0001010000010080402090808FF080809026A
:10260000040810001010D0FF901000FE020202FE1D
:1026100000000000040300FF0083601F0000003F73
:10262000404078001010D0FF9014E4AFA4A4A4AFF1
:10263000E4040000040300FF00894B2A1A0E1A2A42
:102640004B888000000000F0000000FF4040404048
:10265000400000004040407F4040407F40404040BC
:10266000404040001060028C00FE02F202FE00F8C2
:1026700000FF000004047E018047300F1027004750
:10268000807F00001060028C000CA4A4A5E6A4A426
:10269000A40C000004047E0100804F2A0A0F0A2ABD
:1026A0004F80000002028272020202FE0202824297
:1026B0003202020080814020100C0300030C102025
:1026C00040808000807000FF201000FC8484F48231
:1026D0008382800080601807083020104C807F00C3
:1026E00004083000000000FE20202020203F202091
:1026F000202000000080601F020202020202FE0091
:102700000000000000FE20203F2000FC24E42422E2
:1027100023E20000807F0101FF80601F80412618B6
:102720002641800000083000FF20202020FF2020CC
:10273000222C200004040201FF8040300E01061804
:102740002040800040404242424242C24242424215
:1027500042404000201008060040807F0000000238
:1027600004083000000022322AA6A2622111098149
:1027700001000000004222130B42827E02020A1274
:10278000234600002030AC632018809090FF9049D1
:102790004A484000226722121212404020130C14B3
:1027A0002241F8002030AC63300088C8A8998E8898
:1027B000A8C8880022672212128040300F00003F14
:1027C00040407100001715D55557557D555755D5C3
:1027D000151700004040407F555555555555557FBC
:1027E000404040002064249494BF80809FA4A4A211
:1027F00022380000000000FF0A0A0A0A0A4A8A7FFB
:102800000000000008CC4A49484ACC18007F88885C
:102810008482E00000FF121252927F00007E8888BE
:102820008482E000040404041F04244484041F047C
:102830000404040010080600003F4040404040707F
:1028400001020C00040444C44F4444C424242FB4A3
:102850002404040040442424150C04FE040C152414
:102860002444400000F808FF08F880904C57A45416
:102870004C8480002063211F113910101515FF159D
:1028800015101000001088C4330040424242C2427A
:1028900042424000020100FF0000000040807F0033
:1028A00000000000404042CC0000000000FF00009B
:1028B000000000000000003F9048201807000718A3
:1028C00020408000404042CC0040A09E8282829EF8
:1028D000A02020000000003F908840432C10284694
:1028E00041808000404042CC009090909090FF103A
:1028F000111610000000003F1028603F1010010E5C
:102900003040F000404042CC00202222A26222222D
:10291000222000000040201F20444E4544444445EE
:10292000464C4000404042CC0000FC24A42422221B
:10293000A36200000040201F2058475048454245F0
:10294000485040004030EF242480E49C105454FF51
:10295000547C100001017F21512618274445455F12
:102960004545440000F80102000202F202020202A0
:1029700002FE000000FF00000804030001020C40FA
:10298000807F000000F80122202222A2FA222222C7
:1029900002FE000000FF0008040211201F0000409A
:1029A000807F000000F8010600F0121212F202020D
:1029B00002FE000000FF0000001F1111111F004067
:1029C000807F0000407C407F484840F2121AD612B7
:1029D00012F20200908E404F201E804F20180710E8
:1029E000204F800000FC0404FC0000FC0416650479
:1029F00084FC0000000F04040F0010131212125286
:102A000092423E007E4A52FE524A7E202020FF2003
:102A1000222C2000E90969076505B540300E010E3A
:102A200030408000442A00080000002048000000D8
:102A3000280100088C2A000848000020380B0000FC
:102A40004401000800000000000000000000000039
:102A50000000000000000000000000000000000076
:102A60000000000000000000000000000000000066
:102A700000000000000000000000000000127A00CA
:0C2A80000000000000000000000000004A
:040000050800018965
:00000001FF
