:020000040800F2
:10000000F80B002089010008910100089301000805
:100010009501000897010008990100080000000000
:100020000000000000000000000000009B0100082C
:100030009D010008000000009F0100080D1E00083F
:10004000A3010008A3010008A3010008A301000800
:10005000A3010008A3010008A3010008A3010008F0
:10006000A3010008A3010008A3010008A3010008E0
:10007000A3010008A3010008A3010008A3010008D0
:10008000A3010008A3010008A3010008A3010008C0
:10009000A3010008A3010008A3010008A3010008B0
:1000A000A3010008A3010008A3010008A3010008A0
:1000B000A3010008A3010008A3010008A301000890
:1000C000A3010008A3010008A3010008A301000880
:1000D000A3010008A9270008A3010008A301000844
:1000E000A3010008A3010008A301000800F002F822
:1000F00000F03AF80AA090E8000C82448344AAF188
:100100000107DA4501D100F02FF8AFF2090EBAE885
:100110000F0013F0010F18BFFB1A43F0010318473B
:100120008C3F0000AC3F0000103A24BF78C878C173
:10013000FAD8520724BF30C830C144BF04680C60ED
:10014000704700000023002400250026103A28BF35
:1001500078C1FBD8520728BF30C148BF0B60704739
:100160001FB51FBD10B510BD00F031F81146FFF7E7
:10017000F7FF02F05FFC00F04FF803B4FFF7F2FF67
:1001800003BC00F057F800000948804709480047C1
:10019000FEE7FEE7FEE7FEE7FEE7FEE7FEE7FEE737
:1001A000FEE7FEE704480549054A064B7047000094
:1001B0001D1E0008ED000008F8050020F80B0020C7
:1001C000F8070020F8070020704770477047754611
:1001D00000F02CF8AE4605006946534620F00700B3
:1001E000854618B020B5FFF7DDFFBDE820404FF091
:1001F00000064FF000074FF000084FF0000B21F011
:100200000701AC46ACE8C009ACE8C009ACE8C009DD
:10021000ACE8C0098D46704710B50446AFF30080C6
:100220002046BDE81040FFF7A8BF00000048704717
:100230009805002001491820ABBEFEE72600020009
:100240007047000010B507480078401C00F003001C
:10025000044908700449034A1278885C01F0ACFC38
:1002600010BD00000A0000202A2C000810B5074825
:100270000078401C05490870012000F0C9F878207A
:1002800000F000FB002000F0C3F810BD0B000020C0
:1002900010B501F03DFF10BD10B501F047FF10BDD6
:1002A00010B500201049087003201049087002F0B2
:1002B0005BF9012002F098F84FF4E16002F07AF85F
:1002C000012002F0A5F8012002F098F8012002F0C8
:1002D00081F8002000F068FD0549044A1278885C26
:1002E00001F06AFC10BD00000B0000200A00002095
:1002F0002A2C000810B501F059FF08B9012000E0D0
:100300000020044602F066F810BD10B501F060FF51
:1003100008B9012000E00020044602F079F810BD81
:1003200010B5002011490870032011490870002001
:100330001049086010490870104908601049087099
:100340001049087010490870104908701049086079
:100350000021084600F0B0F80E49054A1278885C82
:1003600001F02AFC0C4801F017F910BD0B00002029
:100370000A0000200C0000201000002014000020C3
:100380008800002008000020090000200000002054
:10039000040000202A2C0008382E000810B502F0B6
:1003A0000BF900F0D5FE0C480078022813D101F0BB
:1003B00053FD0A490968401A4FF4FA71B0FBF1F095
:1003C00000F001040CB9012100E00021084621469B
:1003D00000F0CEFC00BF10BD000000200400002093
:1003E00070B505460C46164605EB4400314601F053
:1003F0004DFB2044C0B270BD00B50222032103486A
:1004000000F09BFA002000F003F800BD000C014052
:1004100018B10821034A116003E04FF40021014A9A
:1004200011607047100C01400148006870470000DF
:100430003400002010B500F06BF81348806940F0DC
:100440001D001149886100F057F801F0E9FC07220E
:1004500006210E4800F071FA072211460B4800F001
:100460006CFAC02009491031086000F013F8FFF75A
:10047000C3FF02220D21064800F05FFA4FF400503E
:100480000349086110BD000000100240000C01404B
:100490000010014000B502220C21064800F04DFA80
:1004A00002220F21034800F048FA0021084600F01C
:1004B00003F800BD0008014030B5024600200AB133
:1004C000012500E000252B4609B1012500E00025AB
:1004D0002C4613B14FF4805501E04FF0805528436E
:1004E00014B14FF4004501E04FF000452843014DA1
:1004F000286030BD100801400448406820F0E060EA
:1005000040F0007001494860704700000000014061
:1005100012212F4A11602F49496941F010012D4ADB
:1005200051611146096841F4803111604FF4802017
:1005300000E0401E2749096801F4003109B900288C
:10054000F7D12449096801F4003119B92249234A35
:100550001160704722491F4A51601146096841F0F5
:10056000807111604FF4802000E0401E1949096835
:1005700001F0007109B90028F7D11649096801F0A6
:10058000007119B91449154A1160E2E71149496827
:1005900021F00301891C0F4A51604FF4802000E0D4
:1005A000401E0C494968C1F38101022901D000288D
:1005B000F6D108494968C1F38101022903D10949EB
:1005C000064A116002E00449044A116000BFC0E716
:1005D000002002400010024000127A003400002087
:1005E00000041D0000A24A0470B506460C463546BC
:1005F0000DE0284601F0E9FB0546287801F032FCC1
:100600002178884201D0002070BD6D1C641C2078C8
:100610000028EED12846F7E710B503460024002253
:1006200000210BE001208840184028B1084830F92B
:1006300011000444501CC2B2481CC1B20429F1D3B9
:100640000AB9044810BD94FBF2F000B2FAE70000CA
:100650007240000818FCFFFF10B504460948006806
:10066000201A5A2808D9002007490860074908803D
:10067000012000F01BF910BD0548008800F00EF9BC
:1006800000BFF8E76400002058000020540000205C
:100690007C00002010B5044607480068201AAA28EC
:1006A00003D9052000F002F910BD40F2DC5000F043
:1006B000F5F800BFF8E700006400002010B504461C
:1006C0000B480068201A40F6B83188420AD901F078
:1006D0009BF808480068201A07490860072000F0C6
:1006E000E5F810BD0548007801F078FB00BFF8E799
:1006F00064000020680000206C0000205C000020E6
:100700002DE9F04781462048B0F900401F48B0F974
:100710000000A4EB00081D4804801D49096803225D
:1007200002FB0180C11700EB91718910184A11601A
:1007300041F2883060431146096840F2145202FBCE
:1007400001004FF47A7190FBF1F712480088C51947
:1007500010480088C61BB5F5E15F01DB41F61F4577
:10076000B6F5E15F01DB41F61F460B48854200DA32
:1007700005460948864200DA064631B228B201F041
:1007800023F8BDE8F087000052000020540000204C
:10079000580000207C00002024FAFFFF2DE9F041E2
:1007A00005460C461F4800682E1AB6F52F7F0BD958
:1007B0000E2C01D0072C07D1022000F077F8284634
:1007C000FFF74AFFBDE8F081B6F5FA5F03D90120D3
:1007D00000F06CF8F6E72046FFF792FF1248007829
:1007E00078B900F091FF00F28A2007B200F086FF8E
:1007F000A0F28A200FFA80F83946404600F0E4FF64
:100800000EE000F081FFA0F28A2007B200F076FF30
:1008100000F28A200FFA80F83946404600F0D4FFF3
:1008200000BFCFE7640000205E00002070B50446E2
:100830000D4605F0060058B100200D4908600D482E
:10084000B0F900000C490880012000F02FF870BDBD
:100850000A480068201AB0F5966F03D9052000F009
:1008600025F8F4E70648007801F0B8FA00BFEEE793
:100870005800002052000020540000206400002096
:100880005D000020044A116800BF034A1268521A32
:100890008242FAD3704700003800002010B50446A9
:1008A00021B220B200F090FF10BD000010B5044648
:1008B0000348047001F0D0FA0249086010BD00003E
:1008C0004C0000206400002010B50146002259238E
:1008D00010E0D41860100A4C34F810408C4200D15B
:1008E00010BD074C34F810408C4201DA421C00E085
:1008F000431E00BF9A42ECDD4FF0FF30F0E70000EE
:10090000763400082DE9F04106460D460024002DFE
:1009100008DA2D2026F81400601CC4B2681CC0F14F
:10092000010700E02F4606EB4400394601F0AEF81F
:100930002044C4B22046BDE8F08170B50346154698
:10094000082902D218468A0003E0181DA1F1080602
:10095000B20004680F269640B44305FA02F6344309
:10096000046070BD08B50820009004E09DF8000008
:10097000401EC0B200909DF800000028F6D108BDCE
:1009800010B580200949086040200860FFF7EAFFA1
:1009900080200649091D0860FFF7E4FF4020034955
:1009A000091D0860FFF7DEFF10BD0000100C0140BC
:1009B00010B58020064908604020091F0860FFF735
:1009C000D1FF80200249091F0860FFF7CBFF10BD4F
:1009D000140C014070B5044600261BE004F08000B2
:1009E00018B180201849086003E080201649091DCD
:1009F0000860FFF7B7FF402013490860FFF7B2FF18
:100A000040201149091D0860FFF7ACFF6006040E85
:100A1000701CC6B2082EE1D380200B490860FFF796
:100A2000A1FF402008490860FFF79CFF06480838EE
:100A30000068012121EAD01540200349091D086002
:100A4000FFF790FF284670BD100C014030B589B00B
:100A50001D4801F0B8F805461B4A0021084600F081
:100A60008DFF1A4A0021284600F088FF184801F03F
:100A7000AAF80546164A0221002000F07FFF154A19
:100A80000221284600F07AFF134801F09CF8054641
:100A9000114A0421002000F071FF1048016801A8EC
:100AA000FFF730FF0446002001A921F8140001AA35
:100AB0000421284600F062FF094A0621002000F0C8
:100AC0005DFF09B030BD0000442B0008A42A0008D7
:100AD0004A2B0008BE2A0008502B00080C000020FA
:100AE000382B000810B50446042C01D0052C01D188
:100AF00000F0E0FB10BD000010B5002415E0164A20
:100B000002EBC4021179144A52F834000822FFF7AC
:100B100014FF114800EBC4000179012088400E4900
:100B200051F834100861601CC4B2042CE7D30020D3
:100B30000A4908700A490860002409E000200949B0
:100B40000855094941F8240008490855601CC4B2F9
:100B5000042CF3D310BD00004C2E0008240000200C
:100B6000300000202500002048010020290000203E
:100B70002DE9F04101F070F90546002700263748BD
:100B80000068281A052802D20020BDE8F081334809
:100B90000560002411E0324850F834008068304984
:100BA00001EBC4010A7901219140084018B90120E4
:100BB000A040C0B20743601CC4B2042CEBD3002495
:100BC00048E00121A140C8B207EA0001A1B32549CC
:100BD000095D022904D22349095D491C214A1155A6
:100BE0002049095D022911D31F490978014069B9DB
:100BF0001D49097801431C4A11701C4941F82450D1
:100C000000211B4A11550EB9611CCEB21649097854
:100C10000140E9B11649095DD1B9144951F82410D0
:100C2000691AB1F5487F13D396B90121104A1155BD
:100C3000032C0DD105260BE0FFE70021094A1155D1
:100C4000094909788143084A11700021084A115561
:100C5000601CC4B2042CB4D3304696E730000020A8
:100C60004C2E000825000020240000204801002010
:100C70002900002010B51F4A0021082000F07EFE48
:100C80001D48007808B11D4800E01D4802460021BB
:100C90007E2000F0AFFE1B4A0221082000F06EFE0D
:100CA0001948007808B1154800E0154802460221AD
:100CB0007E2000F09FFE15480078022801D1144CD8
:100CC00007E012480078012801D10C4800E00C48E8
:100CD0000446104A0421082000F050FE2246042158
:100CE0007E2000F087FE0C4A0621082000F046FE18
:100CF00010BD00000A2B0008080000202A2B000865
:100D00002E2B0008162B00080900002000000020F0
:100D1000322B0008222B0008382B000810B504469F
:100D2000012C06D0022C0FD0042C11D0052C13D18D
:100D30000FE00B490978012901D0012100E00021D1
:100D4000084600F031F808E0022000F02DF804E039
:100D500000BF00F0AFFA00E000BF00BF10BD000010
:100D60000000002010B5002000F01EF810BD0000AB
:100D700070B505460C460A480078854204D10948FA
:100D80000078844200D170BD0548057005480470A4
:100D900021462846FFF790FB00F012FC00BFF2E767
:100DA000080000200900002010B504460E48047019
:100DB00001F052F80D4908607CB1012C02D0022CE0
:100DC0000AD104E001210846FFF7D2FF0AE0002122
:100DD0000120FFF7CDFF05E000BF00210846FFF727
:100DE000C7FF00BF00BF10BD0000002004000020AE
:100DF00010B504460D2C01D00A2C06D100F0C4F920
:100E000001F02AF81349086010BD1348007817282C
:100E100017D212481049097844540F480078401CF2
:100E20000D49087000200D490B4A12788854084675
:100E300000F01AF940B100F009FA002006490870E4
:100E400002E000200449087001F006F8014908603A
:100E500000BFD9E714000020100000208800002007
:100E600038B566A16748FFF7BFFB04465CB166A1D1
:100E70002046FFF7B9FB10B101F076FB01E001F06D
:100E8000D1FA012038BD62A15E48FFF7ADFB0446F0
:100E900064B161A000F08EFF01F020F9054600F07A
:100EA00089FF5EA000F086FF0120EBE75CA15548BA
:100EB000FFF79AFB0446002C2DD05BA000F07AFFD0
:100EC00001F0EAFA054600F075FF58A000F072FF45
:100ED00001F004F9054600F06DFF01F05BF90546ED
:100EE000294653A000F07AF901F05AF9054629463F
:100EF00050A000F073F901F001FA054629464EA012
:100F000000F06CF901F034F9054629464BA000F0D9
:100F100065F90120B6E74AA13A48FFF765FB0446A8
:100F2000CCB149A12046FFF75FFB18B1002001F0CA
:100F30006FFA07E045A12046FFF756FB10B10120EC
:100F400001F066FA01F044F9054629463CA000F09C
:100F500067F9012096E73EA12A48FFF745FB0446C2
:100F6000CCB139A12046FFF73FFB18B1002001F0BA
:100F700045FA07E035A12046FFF736FB10B1012006
:100F800001F03CFA01F01EF90546294630A000F0B8
:100F900047F9012076E730A11A48FFF725FB044600
:100FA0008CB16946204600F087F818B10099C8B2A4
:100FB00001F01AFA01F000F90546294626A000F0D2
:100FC0000DF901205EE726A10E48FFF70DFB044650
:100FD0008CB16946204600F06FF818B1009988B2CC
:100FE00001F0E8F901F0DCF80546294611A000F00F
:100FF000F5F8012046E7002044E700005452414341
:101000004B0000008800002053544F5000000000A7
:1010100053454E534F525300533D00000D0A0000FC
:10102000535441545553000053543D0020533D0048
:1010300020450000535044004C4150004D530000E7
:1010400052494E47000000004F4646004F4E0000F8
:101050004C494E45000000004C4150530000000038
:1010600053504545440000000246002318E0117823
:10107000521C202901D0092900D111E0612904DB8B
:101080007A2902DCA1F12000C1B2042B03D2094865
:10109000C05C884201D000207047581CC3B200BF1A
:1010A00010780028E3D1042B01D10120F4E70020BF
:1010B000F2E70000442E000870B502460B460125F9
:1010C0000021002400E0521C10782028FBD010786A
:1010D0000928F8D010782D2803D14FF0FF35521C85
:1010E00003E010782B2800D1521C13E017488142EE
:1010F00002D96FF000410AE01078303801EB810628
:1011000000EB4601B1F1004F01D36FF00041601CCC
:10111000C4B2521C1078302802DB10783928E5DD83
:1011200000E0521C10782028FBD010780928F8D055
:101130000CB1107808B1002070BD002D01DA4842D2
:1011400000E0084618600120F6E70000CCCCCC0C8B
:1011500008B503E09DF80000FFF74AFE684600F07E
:10116000FDFD0028F6D10648007840B100F074FE7D
:1011700004490968401A3C2801D300F005F808BD6D
:10118000100000201400002008B500201049114A6A
:10119000127888540F480078A8B1FFF761FE18B1A3
:1011A00000200C49087008BD69460948FFF784FF14
:1011B00048B1094900980968884204D00649009856
:1011C000086000F0FDF900200249087000BFEAE75E
:1011D00088000020100000200C000020F0B589B02D
:1011E00005460E46314601A8FFF78CFB0746284608
:1011F00000F0E0FD3D2000F0CFFD002406E001A955
:1012000011F8140000F0C8FD601CC4B2BC42F6DB4B
:1012100002A000F0CFFD09B0F0BD00000D0A0000F3
:1012200070B505460C46284600F0C4FD0CB103A17C
:1012300000E004A1084600F0BDFD70BD3D4F4E0D1D
:101240000A0000003D4F46460D0A000030B589B047
:101250000C48016801A8FFF755FB0546002406E08D
:1012600001A911F8140000F097FD601CC4B2AC4253
:10127000F6DB0D2000F090FD0A2000F08DFD09B096
:1012800030BD00000C00002001460848007808B975
:101290000020704706480068081A41F288329042E0
:1012A00001D20020F5E70120F3E700007A000020DA
:1012B0007400002010B500F0A7F910BD10B500F0C3
:1012C0002FF804791148007811490978884203DA27
:1012D0000E4800780E4908700D480078001DC0B215
:1012E0000A490978884204DC08480078C01E084989
:1012F0000870042C08D9201FC0B20549097888421B
:1013000002DA201F0249087010BD000021000020F1
:1013100022000020002001490870704723000020AF
:1013200003480078401E034951F820007047000030
:1013300020000020280100202DE9F047FFF7F0FFF2
:10134000044600F077FAA06838B1A068406820B180
:10135000A16848688047BDE8F0872779002522E02A
:1013600028480078284400F0FF0868064FEA106A11
:10137000B84500DB19E0206800EB081651460C2048
:10138000326800F0FBFAF06858B1F0688047814697
:10139000B9F1000F04D04A4651467E2000F02AFBE6
:1013A00000BF681CC5B2042DDAD300BF1648007810
:1013B00014490978884220DB1348007811490978DC
:1013C000401AC0B2042818D20F4800780D49097895
:1013D000401A00F0FF084FEA4860060E0223802200
:1013E0003146002000F096FB042000EBC600C1B29D
:1013F0000022032000F00AF800BF384600F028F869
:1014000000BFA8E722000020210000202DE9F041C4
:1014100006460F469046002415E000250FE0A54241
:101420000BDBC4F10800C0B2A84206DB7A19D1B2C6
:101430003219D0B2424600F075FA681CC5B2092DC7
:10144000EDD3601CC4B2052CE7D3BDE8F0810000E9
:1014500038B50446042C00D838BD0A48007880000E
:10146000B0FBF4F0C5B2042D00D303250120009099
:101470006806010E02231A467E2000F0D5FA00BF4E
:10148000EAE700002100002010B504460C4800786F
:10149000082800D310BD0B4800780B49084A127881
:1014A00088540A480649097840F8214004480078E1
:1014B000401C0349087000F0DBF800BFEAE70000B9
:1014C000200000202100002018000020280100201A
:1014D00070B50646FFF724FF0446A06838B1A0683F
:1014E000006820B1A06801683046884770BD207947
:1014F00000B9FBE7062E45D2DFE806F044031626C6
:10150000393C2248007818B92079401EC0B203E067
:101510001E480078401EC0B21C490870FFF7CEFE7E
:1015200001201B4908702EE0217918480078401CE2
:10153000B0FBF1F201FB120014490870FFF7BEFE88
:101540000120134908701EE010490978206800EB5B
:101550000115686818B16868FFF796FF06E0A8688B
:1015600020B1A86880470120094908700BE0FFF707
:10157000A1FE08E001E000F047F8064800780128E5
:10158000F9D800E000BF00BF00BFAFE72100002096
:10159000230000202000002010B504460548046008
:1015A00000200549087001200449087000F060F827
:1015B00010BD00002801002018000020200000209D
:1015C000012001490870704723000020014800787D
:1015D000704700002300002070B5FFF7A1FE05460C
:1015E000A86808B1012070BD002408E0286800EB5D
:1015F0000410C06808B10120F5E7601CC4B2287966
:10160000A042F3DC0020EEE710B513480078012873
:1016100000D810BD10480078401E104951F82040F5
:10162000A06828B1A068806810B1A1688868804768
:1016300009480078401E0849087009480978405C4C
:1016400008490870002008490870FFF737FE01209C
:101650000649087000BFDCE72000002028010020B8
:10166000180000202100002022000020230000207C
:1016700000200449087004490870012003490870DB
:1016800070470000210000202200002023000020DD
:10169000F0B5144600250026B3F5E15F02DB41F604
:1016A0001F4303E013F5E15F00DC124B002B06DD66
:1016B000012707FA00F507FA01F69AB212E0002BAB
:1016C00007DA012707FA01F507FA00F65F42BAB216
:1016D00008E0012787404FF0010C0CFA01FC47EAB3
:1016E0000C06002245EA0647DFF80CC0CCF8007073
:1016F0002260F0BDE1E3FFFF100801400148B0F9AE
:1017000000007047480000200148B0F90000704711
:101710004A00002010B52848C06940F0040026495E
:10172000C861032204212548FFF707F90322052198
:101730002248FFF702F9032208212048FFF7FDF8AD
:1017400003220B211D48FFF7F8F80B2208211C4843
:10175000FFF7F3F80B2209211948FFF7EEF80020F4
:101760001849086041F61F40091D0860802015498E
:101770002839086046F6680012490C3908604FF4B1
:101780008850091D086000200E4914310860091DA9
:10179000086000F039F801200A4914390860002077
:1017A000091F086007482838006840F00100054913
:1017B0002839086010BD00000010024000080140F8
:1017C000000C0140280800402DE9F04104460D4678
:1017D0002E46274609480480094805803346094AB1
:1017E00005210420FFF754FF3B46064A121D0B213A
:1017F0000820FFF74DFFBDE8F08100004800002001
:101800004A0000203C0800404FF013600549086082
:10181000002005490860091D086004490880044942
:1018200008807047100801403C0800404800002034
:101830004A00002000200CE0002106E00022064BB8
:1018400003EBC0135A544A1CD1B28029F6D3421C70
:10185000D0B20828F0D3704758010020F0B50346F5
:10186000062900D9F0BD202A01D37E2A00D93F22C3
:10187000A2F12005134E06EB051400201DE0124DC9
:1018800005EBC1151E18AD5D265C35430E4E06EB0B
:10189000C1161F18F5550C4E4D1C06EBC5151E182C
:1018A000AD5D00F10806A65D3543074F4E1C07EB02
:1018B000C6161F18F555451CE8B20828DFD300BF2F
:1018C000D0E70000862E00085801002070B50346BE
:1018D000062900D970BD00201DE0114C04EBC11495
:1018E0001D18645D155C2C430D4D05EBC1151E18CC
:1018F000AC550B4D4C1C05EBC4141D18645D00F178
:101900001005555D2C43064E4D1C06EBC5151E18E3
:10191000AC55441CE0B21028DFD300BFDAE700006A
:101920005801002030B5802801D2402900D330BDB5
:1019300082B1CB10104C04EBC3131B5C01F0070504
:101940000124AC40E4B22343CC100B4D05EBC4148E
:1019500023540EE0CB10084C04EBC3131B5C01F0C6
:1019600007050124AC40A343CC10034D05EBC41480
:10197000235400BFDBE70000580100202DE9F843A5
:101980000446884615462DE02F88802F0BD2782CF0
:1019900000D92AE0FAB241462046FFF75FFF04F182
:1019A0000800C4B21CE0702C00D91EE03846FEF7D7
:1019B0008BFF0646002E07DB0D4800EB4612414622
:1019C0002046FFF783FF07E0002002231022414654
:1019D0000090204600F028F804F11000C4B200BFC7
:1019E000AD1C00BF28880028CED100BFBDE8F88319
:1019F0002A3500082DE9F04104460F4615462846D1
:101A000000F0E1F80646A64205DB2A4639460020EA
:101A1000FFF7B4FF05E0A11BC8B22A463946FFF71D
:101A2000ADFFBDE8F08100002DE9F04304460D460E
:101A3000DDF81CC0002022E02F18FEB2082E00D3D3
:101A40001FE0002116E004EB010808F0FF07802FDB
:101A500000D311E0BCF1000F02D04FF0FF0801E00D
:101A60004FF00008DFF8209009EBC61909F807804D
:101A70004F1CF9B29142E6DB00BF461CF0B298421F
:101A8000DADB00BFBDE8F0835801002030B585B037
:101A900004460A46002122B930202080012005B0EA
:101AA00030BD0CE00A20B2FBF0F500FB1520303011
:101AB0002DF811000A20B2FBF0F2481CC1B20AB1A5
:101AC0000A29EFD3002307E0481EC01A3DF8100092
:101AD00024F81300581CC3B28B42F5DB0846DEE73E
:101AE00010B57820FEF7CEFE40200849086080201F
:101AF00008600220FEF7C6FE1A220549002000F009
:101B000080F8FFF797FE00F037F810BD100C014089
:101B10006C2E00082DE9F04106460F4614461D467E
:101B2000002022E03B18DAB2082A00D31FE000218F
:101B300016E006EB010C0CF0FF03802B00D311E044
:101B4000DFF830C00CEBC21C1CF803C06FEA0C0CB1
:101B5000DFF8208008EBC21808F803C04B1CD9B28C
:101B6000A142E6DB00BF421CD0B2A842DADB00BFD4
:101B7000BDE8F0815801002038B5002417E044F09A
:101B8000B0008DF8000000208DF8010010208DF8C5
:101B9000020003226946002000F033F8054800EBFC
:101BA000C4118022402000F02CF8601CC4B2082C24
:101BB000E5D338BD5801002010B5044621468120E8
:101BC00000F012F810BD0146002208E008888028C5
:101BD00001D2082000E01020104482B2891C08883D
:101BE0000028F3D1D0B2704738B505460C468DF8C1
:101BF00000508DF8014002226946002000F001F8F3
:101C000038BD2DE9F04180460E461746FEF7B8FE76
:101C10007820FEF7DFFE05464046FEF7DBFE054076
:101C2000002405E0305DFEF7D5FE0540601C84B25F
:101C3000BC42F7DBFEF7BCFE2846BDE8F081024659
:101C40000020002107E001238B4013400BB1431C0F
:101C5000D8B24B1CD9B20429F5D3704701460729E5
:101C600001D1002070470E2901D10120FAE7FF20A1
:101C7000F8E7000000B500F08FFB1849087008462F
:101C8000007817490978884203D100201549087067
:101C900000BD1248007814490978884207D00F48DF
:101CA00000781149087001200E490870F0E70D48CE
:101CB0000078032804D20B480078401C09490870BA
:101CC00008480078032806D30748007804490870BC
:101CD00000200449087000BFDAE700004D00002032
:101CE0004E000020500000204F00002070B5044638
:101CF0001348806940F48040114988610B22092112
:101D00001048FEF71AFE04220A210E48FEF715FEBF
:101D1000FEF78AFB00EB5400B0FBF4F50A480560BF
:101D200000200A4908700A4908700A49086042F20E
:101D30002C000549091D086020200749086070BD76
:101D40000010024000080140083801404000002017
:101D5000410000204400002004E100E001460B485F
:101D600000780B4A1278904201D100207047094850
:101D7000074A1278805C087005480078401C00F023
:101D80003F00034A10700120F0E7000040000020EF
:101D9000410000205805002000BF0549096801F0F6
:101DA00080010029F9D00249091D08607047000030
:101DB0000038014000B5024603E01078FFF7ECFF61
:101DC000521C10780028F8D100BD00E0401C0178BA
:101DD0002029FBD001780929F8D0704710B50446B6
:101DE00014B900F004F801E000F008F810BD10B5D7
:101DF00040F2DC514842FFF7E7FC10BD10B5024944
:101E00004842FFF7E1FC10BD24FAFFFF02480068DA
:101E1000401C0149086070473800002070470000EE
:101E20000B48006820F07F4040F07040084908608F
:101E3000084800684FF47A71B0FBF1F0401E4FF093
:101E4000E021486100208861072008617047000098
:101E500020ED00E0340000200148006870470000D9
:101E6000380000200146612905DB7A2903DCA1F155
:101E70002000C0B270470846FCE700002DE9F0479B
:101E800000F092FA0746464A00210846FFF776FD21
:101E900000F03CFB0646324600212820FFF76EFD8D
:101EA00000F038FD0646FFF78EFE804600F032FD5A
:101EB0000646324600217E20FFF79CFDC8F17A01DC
:101EC000C8B2384A0021FFF795FD002433E0022014
:101ED00000EB4410C6B20120A040384008B10120F8
:101EE00000E00020814624B1012C08D0022C12D140
:101EF0000BE02D4A02213046FFF740FD11E02B4A4E
:101F000002213046FFF73AFD0BE0294A0221304614
:101F1000FFF734FD05E0274A02213046FFF72EFD8A
:101F200000BF00BF06F11101C8B24A46022100F00D
:101F30004BF8601CC4B2042CC9D31F4A04210020F2
:101F4000FFF71CFD00F01AFD81461B48FFF73BFE22
:101F5000001DC6B24A4604213046FFF70FFD00F0CF
:101F6000FBFC0646FFF72FFE054600F0F5FC064693
:101F7000324604217E20FFF73DFDC5F17A01C8B24B
:101F80000E4A0421FFF736FD0D4A06210020FFF717
:101F9000F5FC0C4A06214020FFF7F0FCBDE8F08775
:101FA000662B00088E2B00086C2B0008722B000893
:101FB000782B00087E2B0008842B00088A2B000851
:101FC000922B00089C2B00082DE9F04707460C4691
:101FD0009046012000EBC40000F0FF090E2000EB4A
:101FE000C40000F0FF0A00260DE0B919C8B20122B2
:101FF0004946FFF797FCB919C8B201225146FFF7CD
:1020000091FC701CC6B20A2EEFD3012511E005EB3E
:10201000C400C1B201223846FFF784FC05EBC402BC
:10202000D1B207F10902D0B20122FFF77BFC681C94
:10203000C5B20E2DEBD9B8F1000F13D002250FE079
:10204000012609E005EBC402D1B2BA19D0B20122CF
:10205000FFF768FC701CC6B2092EF3D3681CC5B22A
:102060000E2DEDD3BDE8F08710B50446062C23D223
:10207000DFE804F022030E161E1F00F031F910B144
:1020800000F072FA01E000F0CDF9FFF799FA14E0E0
:1020900000F026F918B900F03BF8FFF791FA0CE0D0
:1020A00000F01EF918B900F041F8FFF789FA04E0D2
:1020B00000BFFFF7FFF800E000BF00BF10BD10B584
:1020C00000F052FA10BD10B50120FEF7A1F92D2045
:1020D000FEF7D8FB0020FEF79BF910BD00210CE0B5
:1020E0000820C840084A1278104008B1312000E0AA
:1020F0003020064A5054481CC1B20429F0D30020B5
:10210000024A1071104670474E00002081000020E6
:1021100000B505490978022901D3012100E0022117
:10212000084600F061F900BD7800002000B50022EB
:1021300011E00D4830F812000C490988884208D196
:10214000511C01F00301084B33F8110000F032F983
:1021500000BD501CC2B2042AEBDB0349088800F022
:1021600029F900BFF4E700006A4000087C00002065
:1021700010B500F0B5F828B1FFF76EFE0349096805
:10218000401A10BD02480068FBE70000680000200C
:102190006C0000200148B0F9000070475200002098
:1021A00001480088704700007C000020014800784A
:1021B0007047000080000020014800787047000050
:1021C0007800002001480078704700007F00002060
:1021D00001480078704700007E00002070B50024A0
:1021E0000EE004F10C00C5B2082229462248FEF791
:1021F000A4FB0120A840204910310860601CC4B233
:10220000042CEED300201D4908701D4908701D499B
:1022100008701D4908701D4908701D4908801D4936
:1022200008801D4908601D4908701D4908701D4936
:1022300008701D4908701D4908601D4908601D4946
:1022400008601D4908601D4908601D49086001209B
:102250001C49087000201C4908701C4908704FF484
:10226000E1601B49088001201A4908701A4908706A
:102270001A49087070BD0000000C01404C0000209D
:102280004D0000204E0000204F0000205000002094
:102290005200002054000020580000205C00002064
:1022A0005D0000205E0000205F0000206000002034
:1022B00064000020680000206C00002070000020F6
:1022C0007400002078000020790000207A000020AF
:1022D0007C0000207E0000207F0000208000002085
:1022E0000548007828B104480078072801D001206B
:1022F00070470020FCE700004C00002006480078F2
:10230000401CC1B205480078814202DD03480078D4
:1023100070470846FCE700007900002078000020A4
:1023200010B5044614480068201A1449086014487F
:102330000078401C124908701248046000201249BD
:1023400008700F4800781149097888420EDB0B4865
:1023500000680F4908600F48007838B1FFF754FA59
:102360000720FEF7A3FAFFF7AEFE10BDFFF7ABFEA6
:102370000148046000BFF8E76800002070000020FA
:1023800079000020740000207A00002078000020EE
:102390006C00002080000020024A1168C1F3033065
:1023A00070470000080C01400148007870470000A9
:1023B0004E000020B0F5617F01D24FF46170B0F59E
:1023C000616F01D94FF461600149088070470000D6
:1023D0007C00002008B1012100E00021014A1170B9
:1023E000704700008000002000B90120092800D9B2
:1023F00009200149087070477800002008B10121C8
:1024000000E00021014A1170704700007F000020A9
:1024100008B1012100E00021014A1170704700005D
:102420007E00002010B5FFF75BFF00B110BDFFF785
:102430004AFEFFF711FD0E490860084600680D4985
:10244000086000200C4908600C4908600C490870BD
:102450000C4908700C4908800C4908800C49086038
:102460000C4908700120FEF721FA00BFDEE70000EA
:1024700068000020740000206C0000207000002024
:10248000790000207A000020520000205400002033
:10249000580000205F0000200D480078082813D263
:1024A000DFE800F0130406080A0C0E1009A07047BC
:1024B00009A0FCE70AA0FAE70BA0F8E70BA0F6E7F3
:1024C0000CA0F4E70DA0F2E700BF0EA0EFE70000BC
:1024D0004C00002052554E0043524F535300000011
:1024E0005348415250000000474150004C4F535454
:1024F0000000000052494E470000000046494E4986
:102500005348000049444C45000000000D48007845
:10251000082813D2DFE800F0130406080A0C0E1096
:10252000094870470948FCE70948FAE70948F8E70D
:102530000948F6E70948F4E70948F2E700BF094807
:10254000EFE700004C0000208040000886400008B3
:102550008C40000892400008984000089E40000807
:10256000A44000087A40000810B5FFF74DF9FFF7C6
:10257000B7FE30B1FFF770FC08490968401A0849F6
:10258000086000200749087007490880074908804B
:10259000074908600749087010BD00006800002066
:1025A0006C0000204C00002052000020540000204D
:1025B000580000205F0000202DE9F041FFF74CFC9F
:1025C00006466C480068301A022801D2BDE8F08146
:1025D00068480660FFF74EFB674804780F2C02D06E
:1025E0000120664908702046FEF716F86449088005
:1025F0006448007818B163480078072800D1E5E7FF
:10260000204600F001F90F2C01D1012000E000204C
:1026100080460CB9012000E000200746B8F1000F09
:1026200020D05848007802281CD05748007890B134
:102630005448007801280ED13046FEF725FE50B1EF
:102640003046FFF76DFE4F480078072800D1BDE700
:10265000FFF702FC06460220FEF728F93046FDF798
:10266000FBFFB3E747480078072828D2DFE800F0EF
:102670002728040C081611003046FDF7EDFF76E020
:102680003046FEF707F872E021463046FEF7CEF8F6
:102690006DE021463046FEF781F868E05FB9002022
:1026A0003A4908603648B0F90000394908800120ED
:1026B000FEF7FCF802E03046FEF700F857E000BFF6
:1026C000EFB13348B0F9000010F1820F0BDD304854
:1026D000B0F90000822806DA0420FEF7E7F8304659
:1026E000FDF7D8FF0AE02B4800782B49087003203B
:1026F000FEF7DCF821463046FEF798F837E0274829
:102700000078E8B12046FFF7A9FA0546FF2D14D05E
:1027100023480078401C22490870084600780328A6
:102720000ED320480570002008700620FEF7BEF882
:1027300021463046FEF732F819E0002018490870AB
:10274000012C01D0082C0ED1012C01D0012000E079
:102750000020114908700320FEF7A8F821463046F2
:10276000FEF764F803E02046FDF7CAFF00BF00BF94
:1027700000BF2BE7600000204E0000207A00002000
:10278000520000204C0000207F0000205800002054
:10279000540000205C0000205D0000207E0000202E
:1027A0005F0000205E00002010B51249086800F0AC
:1027B0002801E9B10F49091D0968CAB200F02001DA
:1027C000A9B10D4B1B785B1C03F03F010B4B1B7831
:1027D000994205D10A4B1B685B1C094C236005E03C
:1027E000084B054C24781A55034B197000BF00BFE5
:1027F00010BD0000003801404000002041000020D2
:10280000440000205805002070B5044604F0030081
:10281000FFF715FA054604F00C00FFF710FA06461C
:10282000B54203DD00200449087004E0AE4202DD39
:1028300001200149087070BD5C00002010B50648F9
:10284000027800210548FDF7CBFD0446002003492E
:1028500021F81400084610BD0A000020D000002016
:1028600010B500247820084921F81400641C07489A
:10287000027821460448FDF7B3FD044600200249D2
:1028800021F81400084610BDE00000200B000020D5
:1028900070B5FDF7C9FD0F49B0FBF1F52A460021DF
:1028A0000D48FDF79DFD04464D200B4921F814000D
:1028B000601CC4B2482021F81400601CC4B27A2005
:1028C00021F81400601CC4B2002021F8140008464E
:1028D00070BD000040420F00A000002010B5FFF7BF
:1028E00065FC08B1014810BD0148FCE7CC2B00088D
:1028F000D02B000810B5FFF76BFC08B1014810BDE4
:102900000148FCE7CC2B0008D02B000810B500F0E4
:1029100023F810BD70B50024FFF7F0FC05462A46E9
:1029200021460C48FDF75CFD04462F20094921F89B
:102930001400601CC4B2FFF73FFC05462A4621463E
:102940000448FDF74DFD04460020024921F814001B
:10295000084670BD1801002070B5FFF721FC054640
:102960002A4600210448FDF73BFD044600200249A9
:1029700021F81400084670BD0801002070B5FFF76B
:10298000F7FB6421B0FBF1F50A20B5FBF0F6324607
:1029900000210F48FDF724FD04462E200C4921F8A4
:1029A0001400601CC4B20A20B5FBF0F100FB11500A
:1029B0003030074921F81400601CC4B2732021F89C
:1029C0001400601CC4B2002021F81400084670BD39
:1029D000F000002070B5FFF73FFA6421B0FBF1F57D
:1029E0000A20B5FBF0F6324600210F48FDF7F8FC4F
:1029F00004462E200C4921F81400601CC4B20A20A1
:102A0000B5FBF0F100FB11503030074921F81400FC
:102A1000601CC4B2732021F81400601CC4B20020F2
:102A200021F81400084670BDB80000200048704727
:102A3000202C0008FDF7FEFCFEF76CFEFFF7CEFB36
:102A40004FF41650FFF752F9FFF74AF8FEF754F823
:102A5000FDF766FCFEF7D8FEFFF7FEF9064600BF5D
:102A6000FEF786F8044614B12046FEF731FDFDF767
:102A700095FCFFF7F1F90546FEF7A8FD28B9FEF72A
:102A8000ABFD58B1A81BFA2808D3FEF755FCFFF799
:102A900073F8FEF73FFCFFF7DFF906460220FDF76B
:102AA000F1FEDDE7590061006E0067002000530071
:102AB00068006F007500710069006E00000033004F
:102AC000320036003000320035003300360000009E
:102AD0004C0045004400A76336520000E14F6F6090
:102AE0003E663A790000E15DBF7E9F52FD800000A6
:102AF000D362555C9F52FD80000073518E4E2C674F
:102B00003A670000D48FDE5600004C0045004400B8
:102B100031003A0000004C004500440032003A0009
:102B20000000216A0F5F3A000000AE4E00006D7099
:102B30000000A44EFF66000009632E953400D48F78
:102B4000DE560000D3590D540000665BF7530000B9
:102B5000610020003D00200000003B4E91980000E5
:102B6000D08F4C880000E15DBF7E00005300310033
:102B700000005300320000005300330000005300F7
:102B8000340000002875F66500001F90000008570B
:102B900000004B0031002F545C5000004B0034000B
:102BA000D48FDE560000E15DBF7EBE8B6E7F0000DD
:102BB0000657AF7300000857A65E00008C5B1062DA
:102BC0005C50668F00001F90A65E0000005F000052
:102BD000735100000287239E68564B6DD58B000011
:102BE000CC804951AE4EA65E0000FB7CDF7EBE8BE2
:102BF0006E7F000048722C67E14F6F6000006260DA
:102C00000D59D89EA48B0000530054004D00330092
:102C1000320046003100300033004300380000002D
:102C2000560031002E00300000000F3F8FCF000013
:102C3000E50A00084D0A0008000000001D0D00080C
:102C4000750C0008650D0008692000087D1E00084D
:102C5000BF200008F42B0008000000000000000066
:102C60002D2A0008FE2B000800000000A102000829
:102C700000000000042B000800000000B51200084E
:102C800000000000542C00080300000000000000B9
:102C9000B02B0008000000000B030008F528000816
:102CA000B62B00080000000091020008152900085A
:102CB000C62B000800000000990200080D2900083A
:102CC000BC2B000800000000F5020008DD28000809
:102CD000042B000800000000B512000800000000EE
:102CE000902C00080500000000000000D42B000814
:102CF000000000006D02000861280008E02B0008B9
:102D000000000000450200083D280008A62B00082E
:102D1000E02C00080000000000000000EA2B000882
:102D2000842C00080000000000000000042B0008B4
:102D300000000000B512000800000000EC2C0008A4
:102D4000050000000000000000000000000000007E
:102D50000000000000000000482D000800000000F6
:102D60003C2C0008000000000000000000000000F3
:102D700000000000642D000800000000302C000856
:102D80000000000000000000000000000000000043
:102D9000802D000800000000482C0008082C0008C6
:102DA0000000000000000000000000005A2B000896
:102DB000000000000000000091280008602B0008BF
:102DC0000000000000000000D5290008042B0008C6
:102DD00000000000B5120008000000009C2D000853
:102DE0000400000000000000D02A0008582D000850
:102DF0000000000000000000DC2A0008742D00081C
:102E00000000000000000000E62A0008902D0008E5
:102E10000000000000000000F02A00083C2D00081F
:102E20000000000000000000FA2A0008DC2D000865
:102E30000000000000000000E82D00080500000070
:102E4000000000004745544100000000000C014014
:102E500004000000000C01400500000000080140D3
:102E6000000000000008014001000000AED580A86D
:102E70003FD300408D142002A1C8DA1281CFD9F1CE
:102E8000DB40A4A62EAF0000000000000000000000
:102E9000000000000000000000F80000000000003A
:102EA00000330000000000100C02100C02000000B3
:102EB0000000000000000040C07840C0780000041E
:102EC0003F04043F040000708888FC0830000018AC
:102ED0002020FF211E00F008F08060180000003163
:102EE0000C031E211E0000F00888700000001E2147
:102EF000232C1927211000120E00000000000000F2
:102F0000000000000000000000E0180402000000C3
:102F100000071820400000020418E00000000040F4
:102F2000201807000000404080F08040400002026E
:102F3000010F0102020000000000E000000000019B
:102F400001010F01010100000000000000000090DD
:102F50007000000000000000000000000000000100
:102F6000010101010100000000000000000000302C
:102F700030000000000000000000C03804000060C5
:102F800018070000000000E010080810E000000F23
:102F9000102020100F0000001010F80000000000AA
:102FA00020203F202000007008080808F0000030B2
:102FB00028242221300000300808088870000018FA
:102FC000202121221C000000804030F80000000673
:102FD0000524243F242400F8888888080800001964
:102FE000202020110E0000E0108888900000000FC3
:102FF000112020201F000018080888681800000011
:10300000003E010000000070880808887000001C65
:10301000222121221C0000F008080810E000000115
:10302000122222110F00000000C0C00000000000AA
:1030300000303000000000000080000000000000B0
:1030400000E00000000000008040201008000001A7
:1030500002040810200000404040404040000002B0
:10306000020202020200000810204080000000203E
:103070001008040201000070480808887000000071
:10308000003037000000C030C828E810E000071802
:1030900027282F2817000000C038E0000000203C3F
:1030A00023020227382008F8888888700000203F13
:1030B000202020110E00C03008080808380007182A
:1030C00020202010080008F808080810E000203F21
:1030D000202020100F0008F88888E8081000203F02
:1030E00020202320180008F88888E8081000203FD6
:1030F000200003000000C03008080838000007184E
:103100002020221E020008F808000008F808203FCE
:10311000210101213F20000808F8080800000020D4
:10312000203F2020000000000808F8080800C080A8
:1031300080807F00000008F888C028180800203F21
:1031400020012638200008F8080000000000203F79
:1031500020202020300008F8F800F8F80800203F70
:10316000013E013F200008F830C00008F808203F69
:10317000200007183F00E01008080810E0000F10BA
:10318000202020100F0008F808080808F000203F51
:10319000210101010000E01008080810E0000F10F4
:1031A000282830504F0008F8888888887000203F11
:1031B0002000030C30200070880808083800003810
:1031C000202121221C00180808F808081800000017
:1031D000203F2000000008F808000008F808001F41
:1031E000202020201F000878880000C83808000030
:1031F00007380E01000008F800F800F80800000386
:103200003E013E03000008186880806818082030DE
:103210002C03032C30200838C800C83808000000F0
:10322000203F2000000010080808C8380800203897
:10323000262120201800000000FE020202000000EB
:10324000007F40404000000438C000000000000043
:1032500000010638C00000020202FE00000000402B
:1032600040407F0000000000040202040000000053
:10327000000000000000000000000000000080804E
:103280008080808080800002020400000000000036
:103290000000000000000000808080000000001995
:1032A0002424123F200010F0008080000000003F26
:1032B000112020110E000000008080800000000E10
:1032C000112020201100000080808090F000001F5D
:1032D000202020103F200000808080800000001F00
:1032E000242424241700008080E0909020000020F7
:1032F000203F202000000000808080808000006B44
:1033000094949493600010F0008080800000203F2F
:10331000210000203F20008098980000000000203D
:10332000203F20200000000000809898000000C08E
:103330008080807F000010F0000080808000203FAF
:10334000240629302000001010F8000000000020A2
:10335000203F202000008080808080808000203FEF
:1033600020003F20003F8080008080800000203FC0
:10337000210000203F200000808080800000001F8E
:10338000202020201F00808000808000000080FF1F
:10339000912020110E000000008080008000000EAF
:1033A00011202091FF80808080008080800020207C
:1033B0003F212000010000008080808080000033D9
:1033C000242424241900008080E080800000000074
:1033D000001F202010008080000000808000001F5F
:1033E000202020103F20808080008080800000030B
:1033F0000C300C0300008080008080008080010E73
:10340000300C07380601008080800080800000209A
:10341000310E2E312000808080000080808000816D
:10342000867818060100008080808080800000215E
:10343000302C222130000000000000FC02020000BD
:103440000000013E404000000000FF0000000000BE
:103450000000FF0000000202FC00000000004040ED
:103460003E01000000000002010202040200000010
:103470000000000000003B4E8E4EA44EAE4E204F8A
:10348000E14F4F505C504951735136529F52A852F0
:1034900041535553D153F7530D542F546856DE56AC
:1034A000065708570D59D359575B665B8C5B315CE7
:1034B000555CE15DEE5DA65E005F0F5F2F5F016012
:1034C00062606F601F61106253627E62D362096343
:1034D000A763AD65F6653E66FF662C673A67216AAD
:1034E000626B4B6D146F6D70C17047724872B6722B
:1034F000AF7328753A79FB7CBF7EDF7EEA7E6E7FF4
:10350000CC80FD80AF82DC8302874C88A48BBE8B8D
:10351000D58B668F6C8FD08FD48F1F902E95EA95A8
:10352000ED95F4959198239ED89E00080808080808
:1035300009FA0808080808080000404041414141D4
:10354000417F41414141414040004040424242426E
:1035500042FE424242424240400000000000004021
:10356000807F00000000000000000808886808084C
:10357000090E0808882848880800808140402122D8
:1035800014081422414080818000000404745454C3
:1035900055565454547404040000848341211D057D
:1035A000050505057D818185E300008060F8074001
:1035B0004848E85F484848404000010000FF0000DC
:1035C000020B1222D20A06000000008060F80700F9
:1035D00004242425262424240400010000FF0000E4
:1035E00000F94949494949F900008060F80700FCA1
:1035F000242425262424243C00000000FF403C0312
:10360000FF097F097F0989FF00008060F807000437
:10361000745455565454740400000000FF00030114
:103620000545857D0505050103004040424458C01D
:10363000407F40C0504846404000808040201807EE
:103640000000003F4040404078000000101116107C
:1036500010F010101413100000008181414121115D
:103660000D030D1121414181810040504E4848FF1A
:1036700048484840F80000FF000000003E0202FFFA
:1036800012221E000F40807F0000080808F808087A
:10369000081010FF101010F000001030101F0888E4
:1036A00048300E014080403F00004044C444444440
:1036B000401010FF101010F00000103C131014B850
:1036C00040300E014080403F0000404040404040BC
:1036D00040FF4040404040404000000000000000EB
:1036E00000FF00000000000000000000F8494A4C04
:1036F00048F8484C4A49F800000010101312121202
:1037000012FF12121212131010000000181610D01F
:10371000B89790909092941000000020108C8380B5
:1037200041462810284443808000808080BEA2A2A9
:10373000A2A2A2A2A2BE8080800000000006050412
:1037400004044484443C00000000002020100814BD
:1037500067844424140C0000000004040402FE43A7
:10376000434242424242FE000000000000FC44444A
:10377000444546444444447C00004020180700FC73
:1037800044444444444444FC000080809E9292920D
:103790009EE0809EB2D2929E80000808F49492929D
:1037A000F10001F2929494F808000000FE0202F287
:1037B000121212F20202FE00000000007F202027F9
:1037C0002424242720207F00000000FE0282BAAAC1
:1037D000AAAAAAAABA8202FE000000FF404F6050C7
:1037E00048464850604F40FF000000FE4252D65A03
:1037F000725E525AD65242FE000000FF4241404FD4
:1038000051515557584142FF0000201008F75454B9
:103810005454545454F404040000809090494D577B
:10382000252525554D45808080001010F01F10F093
:10383000403C1010FF101010000040221508162107
:10384000404242427F4242424000100C0424242461
:103850002526A464240404140C000202020202427D
:10386000827F020202020202020040301196909012
:10387000919690909814135030000404040404446A
:10388000847E0605040404040400100C042424248B
:1038900025262424242404140C0000818141310FA6
:1038A0000101017F818181F1000004E4252624E4E7
:1038B000042020FF20E22C202000104B827E020BEF
:1038C00090601C03003F404070000000FE12929286
:1038D000F2929292F292921E000080601F0404FC09
:1038E00047240C1427344C444400404042CC004050
:1038F000B00E40B00E40B00E00000040201F20402F
:10390000414E40414E40414E4000000424242526B3
:10391000E43C242625242404000041211189858BC0
:103920008989F9898989898101000000FC2424247E
:10393000FC252624FC242424040040308F80844C61
:1039400055252525554C8080800080828282FE820C
:1039500082828282FE8282828000008040300F005C
:1039600000000000FF0000000000101090909090F8
:10397000901010FF101011161000002060203F1052
:10398000101000030C102040F80004442414047CA0
:103990000506047C04142444040000001D151515BC
:1039A00015151555955730000000000484844424F3
:1039B000548F1424448484040000413900003C40A6
:1039C00040424C4040700409310000E000FF1020EC
:1039D0000888780F08E808088800010000FF001038
:1039E0000C834423180718628100000000FC545423
:1039F0005655545454FC0000000040300003394137
:103A0000414559414173000830000000FC04D45482
:103A10005454D4047F84C536040088660100638250
:103A20008292AB8482C10224CF000000F88888888B
:103A3000880808FF08090AC8080080601F001020D5
:103A40001F80402116182641F800101010FF10901A
:103A500004040404FC04040404000444827F010000
:103A6000000040807F0000000000101010FF109048
:103A70002020FF201011961000000444827F0100D6
:103A80004020130C142241F80000101010FF109079
:103A9000040484E49C84848404000444827F01043C
:103AA0000201FF40404040FF0000101010FF902036
:103AB000988888E98E8888A898000242817F000053
:103AC00080844B28102847800000101010FF9020A1
:103AD000984828090E2848A818000242817F004013
:103AE000404242427E424242400000FC2024A8FF65
:103AF000A82400FC4444C4424000003F2221202F5F
:103B000020A3601F0000FF00000000FC848484FCF0
:103B1000001010101010FF101000003F1010103F88
:103B20000000010640807F000000000000FE92922D
:103B30009292929292FE0000000040424458407FD0
:103B40004040407F405048464000109454341F3459
:103B5000548054341F3454949000010000FF4949AC
:103B60004949494949FF000000000010101010D0D9
:103B700030FF30D0101010100000100804020908A7
:103B800008FF08080902040810001010D0FF901068
:103B900000FE020202FE00000000040300FF00839A
:103BA000601F0000003F404078001010D0FF9014CC
:103BB000E4AFA4A4A4AFE4040000040300FF008960
:103BC0004B2A1A0E1A2A4B888000000000F00000D1
:103BD00000FF40404040400000004040407F4040E7
:103BE000407F40404040404040001060028C00FE5A
:103BF00002F202FE00F800FF000004047E0180478C
:103C0000300F10270047807F00001060028C000CEE
:103C1000A4A4A5E6A4A4A40C000004047E010080D2
:103C20004F2A0A0F0A2A4F80000002028272020203
:103C300002FE020282423202020080814020100C09
:103C40000300030C102040808000807000FF2010D3
:103C500000FC8484F482838280008060180708302E
:103C600020104C807F0004083000000000FE20205F
:103C70002020203F2020202000000080601F020222
:103C800002020202FE000000000000FE20203F2091
:103C900000FC24E4242223E20000807F0101FF8055
:103CA000601F804126182641800000083000FF2058
:103CB000202020FF2020222C200004040201FF806D
:103CC00040300E01061820408000048484FC848467
:103CD00000040484E41C840404002060201F1010ED
:103CE00004020100FF00000106000000FE22222263
:103CF00022FE22222222FE00000080601F02020219
:103D0000027F020242827F00000040404242424263
:103D100042C2424242424240400020100806004057
:103D2000807F0000000204083000000022322AA632
:103D3000A2622111098101000000004222130B42FE
:103D4000827E02020A12234600002030AC63201853
:103D5000809090FF90494A48400022672212121238
:103D6000404020130C142241F8002030AC63300096
:103D700088C8A8998E88A8C8880022672212128055
:103D800040300F00003F404071002030AC631020F5
:103D90002424A47F2434282620002267221212041F
:103DA00002FF49494949FF000000001715D5555742
:103DB000557D555755D5151700004040407F555546
:103DC00055555555557F404040002064249494BF7C
:103DD00080809FA4A4A222380000000000FF0A0AED
:103DE0000A0A0A4A8A7F0000000008CC4A49484A69
:103DF000CC18007F88888482E00000FF1212529263
:103E00007F00007E88888482E000040404041F048C
:103E1000244484041F040404040010080600003F26
:103E200040404040407001020C00040444C44F4430
:103E300044C424242FB42404040040442424150C36
:103E400004FE040C15242444400000F808FF08F880
:103E500080904C57A4544C8480002063211F11395A
:103E600010101515FF1515101000001088C4330030
:103E700040424242C24242424000020100FF000072
:103E8000000040807F0000000000404042CC000065
:103E9000000000FF0000000000000000003F90480C
:103EA00020180700071820408000404042CC004006
:103EB000A09E8282829EA02020000000003F908869
:103EC00040432C10284641808000404042CC009066
:103ED00090909090FF10111610000000003F1028E5
:103EE000603F1010010E3040F0000008884828188C
:103EF0000FE8080808080808000008080909090967
:103F000009FF0909090909080800C8B88FE8888865
:103F1000404848E85F4848484000081808FF040443
:103F200000020B1222D20A060000404042CC0020C0
:103F30002222A2622222222000000040201F2044D0
:103F40004E4544444445464C4000404042CC00006D
:103F5000FC24A4242222A36200000040201F205839
:103F600047504845424548504000404042CC00043C
:103F7000F49494FF9494F40400000040201F20481F
:103F80004442415F4142444840004030EF24248095
:103F9000E49C105454FF547C100001017F215126F1
:103FA00018274445455F4545440000F801020002DA
:103FB00002F20202020202FE000000FF00000804FA
:103FC000030001020C40807F000000F80122202243
:103FD00022A2FA22222202FE000000FF00080402B0
:103FE00011201F000040807F000000F8010600F053
:103FF000121212F2020202FE000000FF0000001F77
:104000001111111F0040807F0000407C407F484814
:1040100040F2121AD61212F20200908E404F201E69
:10402000804F20180710204F800000FC0404FC0083
:1040300000FC0416650484FC0000000F04040F005B
:1040400010131212125292423E007E4A52FE524AFF
:104050007E202020FF20222C2000E9096907650529
:10406000B540300E010E30408000B00408076009F2
:10407000B80BD4FE9CFF64002C01315CEA7E00008A
:10408000D08F4C8800004153575B00006C8F2F5F2E
:104090000000AD65BF7E00007E62BF7E0000065757
:1040A000AF7300008C5B106200000000CC40000881
:1040B000000000208800000028010008544100088A
:1040C00088000020700B0000440100080000000080
:1040D00000000000000000000000000000000000E0
:1040E00000000000000000000000000000000000D0
:1040F00000000000000000000000000000000000C0
:1041000000127A0000000000000000000000000023
:10411000000000000000000000000000000000009F
:10412000000000000000000000000000000000008F
:10413000000000000000000000000000000000007F
:10414000000000000000000000000000000000006F
:04415000000000006B
:040000050800018965
:00000001FF
